:020000040000FA
:040000002EEF00F0EF
:08000800F294850ED76EEE0E96
:06001000D66E0D2A11005E
:080018009E90E20ECF6EAC0ECB
:10002000CE6E20500ED8819A836E8188215009D8D7
:100030008196826E8184235004D88192806E818063
:1000400011000F0BE844F9263F0C060C5B0C4F0C1B
:10005000660C6D0C7D0C070C7F0C6F0C000E956E02
:10006000000E946E000E926E000E936E0F0EC16E17
:10007000850ED76EEE0ED66EE20ECF6EAC0ECE6E45
:10008000870ED56EF50ECD6ED08E840EF16EE00E1D
:10009000F26E9F909D800A0E0D6251EF00F062EFAC
:1000A00000F00D50CEDF8198836E818A2150C9DF28
:1000B0008194826E81862350C4DF8190806E81821C
:1000C0004BEF00F00D6A050E206269EF00F06CEF57
:1000D00000F0202A4BEF00F0206A212A0A0E21624C
:1000E0004BEF00F0216A050E226279EF00F07CEF01
:1000F00000F0222A4BEF00F0226A232A0A0E236224
:1001000086EF00F0236A242A4BEF00F0020E2462EF
:100110004BEF00F0030E23624BEF00F0236A246ADA
:040120004BEF00F0B1
:020000040030CA
:04000000000C1E1EB4
:02000500038175
:060008000FC00FE00F40E5
:00000001FF
